:020000040800F2
:1000000000080020DD040008D1010008D301000829
:10001000D5010008D7010008D90100080000000040
:10002000000000000000000000000000DB010008EC
:10003000DD01000800000000DF010008E101000808
:1000400025050008250500082505000825050008E8
:1000500025050008250500082505000825050008D8
:1000600025050008250500082505000825050008C8
:1000700025050008250500082505000825050008B8
:1000800025050008250500082505000825050008A8
:100090002505000825050008250500082505000898
:1000A0002505000825050008250500082505000888
:1000B0002505000825050008250500082505000878
:1000C0002505000825050008250500082505000868
:1000D0002505000825050008250500082505000858
:1000E0002505000825050008250500082505000848
:1000F0002505000825050008250500082505000838
:100100002505000825050008250500082505000827
:100110002505000825050008250500082505000817
:100120002505000825050008250500082505000807
:1001300010B5054C237833B9044B13B10448AFF321
:1001400000800123237010BD040000200000000087
:100150007005000808B5034B1BB103490348AFF312
:10016000008008BD000000000800002070050008A5
:1001700008B500F039F840F2046000F0A1F901215F
:10018000114800F05FF9114C4FF400530322102185
:10019000204600F001F94FF40051204600F04FF9DD
:1001A0000A4C4FF40051204600F047F940F2EE208F
:1001B00000F03AF84FF40051204600F040F9FA20E0
:1001C00000F032F8ECE700BF000230000010014000
:1001D0007047FEE7FEE7FEE7FEE7704770477047AF
:1001E00008B500F02BF808BD0C4B1B680C4AA2FBAD
:1001F00003239B09013BB3F1807F0DD24FF0E02236
:100200005361084BF02183F82310002191610720EE
:10021000106183F823107047FEE700BF0000002044
:10022000D34D621000ED00E0034B1860024B1B68D9
:10023000002BFBD1704700BF20000020034B1B6840
:100240001BB1024A1368013B136070472000002075
:100250002F4A136843F001031360002301332C4A33
:10026000126812F0020F02D1B3F5A06FF6D1284B3D
:100270001B6813F0020F00D1FEE7254BDA6942F04C
:100280008052DA6123490A6842F440420A605A689F
:100290005A605A685A605A6842F480625A605A68D2
:1002A00022F0904222F470125A605A6842F00362BF
:1002B00042F480225A601A6842F080721A60144B2D
:1002C0001B6813F0007FFAD0124A136843F480339E
:1002D0001360104B5B6813F4803FFAD00D4A13682B
:1002E00043F4003313600B4B5B6813F4003FFAD008
:1002F000074B5A6822F003025A605A6842F0020221
:100300005A60034B5B6813F0080FFAD0704700BFC8
:10031000001002400070004008B5FFF799FF08BDCB
:1003200000B583B01A4AD2F8883043F47003C2F89B
:100330008830184B1A6842F001021A605A6842F07D
:1003400080025A600023019302E0019B0133019374
:10035000019A44F61F639A42F7D90E4B5A6822F06D
:1003600003025A601A6822F0847222F480321A6002
:100370004FF41F029A601A6822F480221A60002249
:100380005A60DA62FFF7C8FF03B05DF804FB00BFF4
:1003900000ED00E00010024070B501F00F0E11F00A
:1003A000100F03D0042A03D04EEA020E002209E007
:1003B0004EF0030EC26B1A43C263F7E74461056057
:1003C000013292B2072A14D8012494401C40F7D07D
:1003D000066895004FF00F0C0CFA05FC26EA0C0697
:1003E0000EFA05F535432829E8D04829E7D10461FC
:1003F000E5E7082203E044614560013292B20F2A2A
:100400001AD84FF0010C0CFA02FC1CEA0304F4D0D9
:100410004568A2F1080C4FEA8C0C0F2606FA0CF680
:1004200025EA06050EFA0CFC4CEA05052829E2D05F
:100430004829E1D10461DFE770BD01617047416186
:100440007047000010B5002816DB1C4B5B68C0F33A
:1004500003421FFA80FE00F4401CBCF5401F0ED082
:1004600010F4801F1DD04FF0030C0CFA02F223EAA7
:10047000020343F0E06309E0104BDB69E7E723F098
:10048000E0630E4C626822F0E062626021B1420DCE
:1004900012010EFA02F2134300280BDB074A5360E5
:1004A00010BD420D12010EFA02F223EA020343F0DC
:1004B000E063EBE7014AD361F2E700BF00000140CF
:1004C000830903F1804303F504331A6800F01F0029
:1004D000012101FA00F0104318607047002103E089
:1004E0000B4B5B58435004310A480B4B42189A425D
:1004F000F6D30A4A02E0002313600432084B9A4202
:10050000F9D3FFF70DFF00F00FF8FFF731FE70474A
:1005100090050008000000200400002004000020D6
:1005200024000020FEE7000070B50D4D0D4C641B4B
:10053000A4100026A64209D10B4D0C4C00F018F86F
:10054000641BA4100026A64205D170BD55F8043BDB
:1005500098470136EEE755F8043B98470136F2E735
:100560008805000888050008880500088C05000833
:10057000F8B500BFF8BC08BC9E467047F8B500BF90
:08058000F8BC08BC9E46704760
:040588005501000811
:04058C003101000831
:04059000000E27072B
:04000005080004DD0E
:00000001FF
