:020000040800F2
:1000000000040020B90400081102000813020008CF
:10001000150200081702000819020008000000007D
:100020000000000000000000000000001B020008AB
:100030001D020008000000001F0200082102000845
:10004000FD040008FD040008FD040008FD0400088C
:10005000FD040008FD040008FD040008FD0400087C
:10006000FD040008FD040008FD040008FD0400086C
:10007000FD040008FD040008FD040008FD0400085C
:10008000FD040008FD040008FD040008FD0400084C
:10009000FD040008FD040008FD040008FD0400083C
:1000A000FD040008FD040008FD040008FD0400082C
:1000B000FD040008FD040008FD040008FD0400081C
:1000C000FD040008FD040008FD040008FD0400080C
:1000D000FD040008FD040008FD040008FD040008FC
:1000E000FD040008FD040008FD040008FD040008EC
:1000F000FD040008FD04000800000000FD040008E5
:10010000FD040008FD040008FD040008FD040008CB
:10011000FD040008FD040008FD040008FD040008BB
:10012000FD040008FD040008FD040008FD040008AB
:100130000348044B834202D0034B03B11847704776
:1001400004000020040000200000000005480649CB
:10015000091A891001EBD171491002D0034B03B188
:100160001847704704000020040000200000000031
:1001700010B5064C237843B9FFF7DAFF044B13B1EF
:100180000448AFF300800123237010BD0400002059
:10019000000000003001000808B5054B1BB10549FF
:1001A0000548AFF30080BDE80840FFF7CFBF00BFB0
:1001B00000000000080000203001000808B500F031
:1001C00033F840F2046000F069F9104C4FF400532A
:1001D00003221021204600F00FF94FF40051204671
:1001E00000F05AF9094C4FF40051204600F052F942
:1001F00040F2EE2000F038F84FF40051204600F0B5
:100200004BF9FA2000F030F8ECE700BF0010014095
:100210007047FEE7FEE7FEE7FEE77047704770476E
:1002200008B500F02BF808BD0B4B1B680B4AA2FB6E
:1002300003239B09013BB3F1807F0CD2084A536032
:10024000084BF02183F823100021916007201060F3
:1002500083F823107047FEE700000020D34D6210A2
:1002600010E000E000ED00E0034B1860024B1B685B
:10027000002BFBD1704700BF20000020034B1B6800
:100280001BB1024A1368013B136070472000002035
:10029000304A136843F001031360002301332D4AF1
:1002A000126812F0020F02D1B3F5A06FF6D1294BFC
:1002B0001B6813F0020F00D1FEE7274A136843F0D2
:1002C00080531360254A136843F440431360244B62
:1002D0001A681A601A681A601A6842F480621A6012
:1002E0001A6822F0904222F470121A601A6842F0E2
:1002F000036242F480221A60164A136843F0807346
:100300001360144B1B6813F0007FFAD0134A136874
:1003100043F480331360134B1B6813F4803FFAD00F
:100320000E4A136843F4003313600E4B1B6813F43A
:10033000003FFAD00A4B1A6822F003021A601A68CA
:1003400042F002021A60064B1B6813F0080FFAD045
:10035000704700BF001002401C10024000700040B7
:10036000041002400470004008B5FFF791FF08BD7B
:1003700000B583B01C4AD2F8883043F47003C2F849
:1003800088301A4A136843F001031360043213687B
:1003900043F08003136000230193019A44F61F6326
:1003A0009A4203D8019B01330193F6E710490B6889
:1003B00023F003030B600D4A136823F0847323F4C6
:1003C000803313600B4B4FF41F001860136823F445
:1003D0008023136000230B602C321360FFF7C4FFEF
:1003E00003B05DF804FB00BF00ED00E00010024028
:1003F0000410024008100240F0B401F00F0611F0A2
:10040000100F02D0042A02D01643002209E046F061
:100410000306C26B1A43C263F7E744610560013209
:1004200092B2072A14D8012494401C40F7D00768E0
:1004300095004FF00F0C0CFA05FC27EA0C0706FAA2
:1004400005F53D432829E8D04829E7D10461E5E7CF
:10045000082203E044614560013292B20F2A17D8A6
:10046000012494401C40F7D0476802F18045083DC4
:10047000AD004FF00F0C0CFA05FC27EA0C0706FA4A
:1004800005F53D432829E5D04829E4D10461E2E798
:10049000F0BC70470161704741617047830903F107
:1004A000804303F504331A6800F01F00012101FAAC
:1004B00000F002431A607047002103E00A4B5B58CA
:1004C0004350043109480A4B42189A42F6D3094A6C
:1004D00002E0002342F8043B074B9A42F9D3FFF7AE
:1004E00047FFFFF76BFE7047200500080000002063
:1004F000040000200400002024000020FEE700008B
:10050000F8B500BFF8BC08BC9E467047F8B500BF00
:08051000F8BC08BC9E467047D0
:04051800990100083D
:04051C007101000861
:04052000000E27079B
:04000005080004B932
:00000001FF
